:100000000C942A000C943F000C943F000C943F0089
:100010000C943F000C943F000C943F000C943F0064
:100020000C943F000C943F000C943F000C943F0054
:100030000C943F000C943F000C943F000C943F0044
:100040000C943F000C943F000C943F000C943F0034
:100050000C943F0011241FBECFE5D8E0DEBFCDBF1A
:1000600010E0A0E6B0E0E6EEF6E002C005900D92EA
:10007000A037B107D9F70E942E010C9471030C949C
:10008000000080E487B986E886B90895877097B143
:10009000987F97B997B1892B87B986B1806486B963
:1000A0003699FECF84B195B10895613029F4E82FD7
:1000B000F0E08FEF81830895E82FF0E0118208953A
:1000C000413069F4E82FF0E0218181E090E002C046
:1000D000880F991F6A95E2F7822B81830895E82F94
:1000E000F0E0218181E090E002C0880F991F6A95BD
:1000F000E2F78095822381830895E82FF0E08281E2
:1001000021E030E002C0220F331F6A95E2F7282B6E
:1001100022830895E82FF0E0828121E030E002C0E0
:10012000220F331F6A95E2F7209528232283089532
:10013000E82FF0E062830895CF93C82F60E083E357
:100140000E948A006C2F80E30E94980061E083E3A4
:100150000E947D0000C000C061E083E30E948A002D
:1001600085E88A95F1F70000CF91089561E080E37A
:100170000E94550041E060E083E30E94600041E09E
:1001800061E083E30E94600060E080E30E949800E9
:1001900061E083E30E948A008FEC97E00197F1F71A
:1001A00000C0000088E30E949C008EE00E949C003A
:1001B00081E00E949C008FEC97E00197F1F700C06E
:1001C000000086E00E949C000895CF93C82F60E055
:1001D00083E30E947D006C2F80E30E94980061E021
:1001E00083E30E947D0000C000C061E083E30E94C1
:1001F0008A0085E88A95F1F70000CF9108950F9362
:100200001F93CF938C01C0E003C00E94E500CF5F35
:10021000F801EC0FF11D80818111F7CFCF911F9173
:100220000F910895CF93DF93EA01811108C06031E7
:1002300030F4862F8F7080680E949C0009C0813046
:1002400039F4603128F4862F8F70806C0E949C00F6
:10025000CE010E94FF00DF91CF910895CF93DF93ED
:10026000CDB7DEB72C970FB6F894DEBF0FBECDBF6B
:100270000E94B6000E94410080E00E944600BC013E
:1002800080E090E00E94360220E030E040EA50E456
:100290000E94C40220E030EC4FE754E40E948E013B
:1002A00020E030E048EC52E40E94C4020E940002C8
:1002B000CB0199274AE050E0BE016F5F7F4F0E945B
:1002C000310340E650E060E080E00E9412012FE739
:1002D00088E391E0215080409040E1F700C00000A9
:1002E000AE014F5F5F4F60E081E00E9412012FE797
:1002F00088E391E0215080409040E1F700C0000089
:100300008DE690E00E94FF002FEF84E39CE02150F7
:1003100080409040E1F700C00000AECF0E94A201F3
:100320000C948A020E94830258F00E947C0240F0E2
:1003300029F45F3F29F00C94730251110C94BE0212
:100340000C9479020E949B0268F39923B1F3552320
:1003500091F3951B550BBB27AA27621773078407D8
:1003600038F09F5F5F4F220F331F441FAA1FA9F36E
:1003700035D00E2E3AF0E0E832D091505040E6955C
:10038000001CCAF72BD0FE2F29D0660F771F881FBD
:10039000BB1F261737074807AB07B0E809F0BB0BB0
:1003A000802DBF01FF2793585F4F3AF09E3F5105C4
:1003B00078F00C9473020C94BE025F3FE4F3983E15
:1003C000D4F3869577956795B795F7959F5FC9F7AD
:1003D000880F911D9695879597F90895E1E0660F2E
:1003E000771F881FBB1F621773078407BA0720F0A7
:1003F000621B730B840BBA0BEE1F88F7E095089510
:100400000E9407026894B1110C94BE0208950E94E4
:10041000A30288F09F5798F0B92F9927B751B0F0F1
:10042000E1F0660F771F881F991F1AF0BA95C9F778
:1004300014C0B13091F00E94BD02B1E008950C9457
:10044000BD02672F782F8827B85F39F0B93FCCF30A
:10045000869577956795B395D9F73EF490958095F5
:10046000709561957F4F8F4F9F4F0895E89409C015
:1004700097FB3EF490958095709561957F4F8F4FD7
:100480009F4F9923A9F0F92F96E9BB279395F695ED
:10049000879577956795B795F111F8CFFAF4BB0F6B
:1004A00011F460FF1BC06F5F7F4F8F4F9F4F16C0CF
:1004B000882311F096E911C0772321F09EE8872F59
:1004C000762F05C0662371F096E8862F70E060E015
:1004D0002AF09A95660F771F881FDAF7880F96958E
:1004E000879597F9089597F99F6780E870E060E035
:1004F00008959FEF80EC089500240A9416161706BD
:1005000018060906089500240A9412161306140604
:1005100005060895092E0394000C11F4882352F067
:10052000BB0F40F4BF2B11F460FF04C06F5F7F4F1F
:100530008F4F9F4F089557FD9058440F551F59F006
:100540005F3F71F04795880F97FB991F61F09F3FC0
:1005500079F087950895121613061406551FF2CFE9
:100560004695F1DF08C0161617061806991FF1CF39
:1005700086957105610508940895E894BB27662760
:100580007727CB0197F908950E94D7020C948A022D
:100590000E947C0238F00E94830220F0952311F023
:1005A0000C9473020C94790211240C94BE020E94E4
:1005B0009B0270F3959FC1F3950F50E0551F629F0A
:1005C000F001729FBB27F00DB11D639FAA27F00DAC
:1005D000B11DAA1F649F6627B00DA11D661F829FD3
:1005E0002227B00DA11D621F739FB00DA11D621FB8
:1005F000839FA00D611D221F749F3327A00D611DD5
:10060000231F849F600D211D822F762F6A2F1124B6
:100610009F5750409AF0F1F088234AF0EE0FFF1FE9
:10062000BB1F661F771F881F91505040A9F79E3F40
:10063000510580F00C9473020C94BE025F3FE4F30A
:10064000983ED4F3869577956795B795F795E79596
:100650009F5FC1F7FE2B880F911D9695879597F99F
:1006600008954532510520F4423010F00C943C03BB
:10067000FB011082CB010895BB274A3031F4992346
:1006800022F4BDE2909581959F4F0C944803BB27BF
:10069000FB015527AA27880F991FAA1FA41710F03E
:1006A000A41B83955051B9F7A05DAA3308F0A95D4A
:1006B000A193009779F7B111B1931192CB010C94EA
:1006C0006103DC01FC01672F71917723E1F7329719
:1006D00004C07C916D9370836291AE17BF07C8F31D
:0606E0000895F894FFCF1D
:1006E60054656D70657261747572653A00204300D9
:00000001FF
